:020000040800F2
:100000000004002047010008B5010008B7010008FE
:10001000BB010008BF010008C30100080000000088
:10002000000000000000000000000000C701000800
:10003000C90100080000000077500008CD01000849
:1000400067010008670100086701000867010008F0
:1000500067010008670100086701000867010008E0
:1000600067010008670100086701000867010008D0
:1000700067010008670100086701000867010008C0
:1000800067010008670100086701000867010008B0
:1000900067010008670100086701000867010008A0
:1000A0006701000867010008670100086701000890
:1000B0006701000867010008670100086701000880
:1000C0006701000867010008670100086701000870
:1000D00067010008DD010008190200085502000848
:1000E0006701000867010008670100086701000850
:1000F0006701000867010008670100086701000840
:10010000670100086701000867010008670100082F
:10011000670100086701000867010008670100081F
:10012000670100086701000867010008670100080F
:10013000DFF80CD005F0ACF8004800477501000866
:1001400040110020704708488047084981F308881B
:1001500007480047FEE7FEE7FEE7FEE7FEE7FEE7AB
:10016000FEE7FEE7FEE7FEE745010008401100203C
:100170003101000800B585B001F0C2F904F07BF848
:10018000032000215022084BCDE90132CDE90310B4
:1001900004200346054A0090054804F00DFD04F0D4
:1001A0002FF9002005B000BD3402002070030020AC
:1001B000BD3D0008704700BFFEE700BFFEE700BF7F
:1001C000FEE700BFFEE770477047704710B504F0C8
:1001D00062F804F05DF904F079F810BD10B540F252
:1001E00025512B4800F04EFD012814D140F2255135
:1001F000274800F06DFD27480068C5280BD8244823
:1002000000F0E1FC2449234A126888542148006820
:10021000401C2049086010BD10B540F225511F4810
:1002200000F030FD012814D140F225511B4800F0A8
:100230004FFD1B4800682F280BD8184800F0C3FC5E
:100240001849174A1268885415480068401C144918
:10025000086010BD10B540F22551134800F012FDA2
:10026000012814D140F225510F4800F031FD0F480C
:1002700000682F280BD80C4800F0A5FC0C490B4A4D
:100280001268885409480068401C0849086010BD7D
:1002900000380140000000207403002000440040AA
:1002A000040000203C04002000480040080000201A
:1002B0006E04002010B50446C549601A8C422FD048
:1002C00009DCC448201810D0B0F5806F16D0B0F506
:1002D000006F4AD11BE0B0F5806F2AD0B0F5006FF7
:1002E00030D0B0F5406F40D135E00121042000F05E
:1002F000F9FA0021042000F0F5FA37E00121082086
:1003000000F0F0FA0021082000F0ECFA2EE00121C4
:10031000102000F0E7FA0021102000F0E3FA25E0B9
:100320000121202000F0DEFA0021202000F0DAFA7E
:100330001CE00121402000F0D5FA0021402000F00F
:10034000D1FA13E00121802000F0CCFA00218020B6
:1003500000F0C8FA0AE00121080200F0C3FA002107
:100360004FF4807000F0BEFA00E000BF00BF10BD87
:1003700010B50121084600F0B5FA0021012000F077
:10038000B1FA10BD2DE9F0410246002500260020FB
:1003900000230024002791F803C00CF00F0591F80A
:1003A00003C01CF0100F03D091F802C04CEA050501
:1003B00091F800C0BCF1000F31D0146800202BE090
:1003C0004FF0010C0CFA00F3B1F800C00CEA030680
:1003D0009E4220D183004FF00F0C0CFA03F7BC4370
:1003E00005FA03FC4CEA040491F803C0BCF1280FA1
:1003F00006D14FF0010C0CFA00FCC2F814C00AE060
:1004000091F803C0BCF1480F05D14FF0010C0CFA74
:1004100000FCC2F810C0401C0828D1D31460B1F809
:1004200000C0BCF1FF0F34DD546800202EE000F165
:10043000080C4FF0010808FA0CF3B1F800C00CEA00
:1004400003069E4221D183004FF00F0C0CFA03F7F4
:10045000BC4305FA03FC4CEA040491F803C0BCF168
:10046000280F05D100F1080C08FA0CF8C2F8148026
:1004700091F803C0BCF1480F07D100F1080C4FF010
:10048000010808FA0CF8C2F81080401C0828CED3E6
:100490005460BDE8F0814FF6FF7101800221817048
:1004A0000421C17070470246002093680B4201D0BE
:1004B000012000E0002070470146886880B2704744
:1004C00002460020D3680B4201D0012000E000204A
:1004D00070470146C86880B270470161704741614A
:1004E00070470AB1016100E041617047C160704727
:1004F0004FF480320A43826181618261826982693C
:10050000704702460020344B18684FF6807318403D
:1005100040EA02100843304B186070472F49C86109
:100520007047F0B50A4600230024002100252A4E1A
:100530007168C0F3034583B200F44016B6F5401F5E
:1005400008D121F07061244E766826F07066224F43
:100550007E6012E000F48016B6F5801F06D10326F7
:1005600006FA05F4A14341F0706106E0460D36013C
:1005700003FA06F6B14341F0706122B1460D36012F
:1005800003FA06F63143144E7160F0BD30B5002217
:100590008B071C0F0F2303FA04F20F4B08338C1048
:1005A00053F8243093430C4C08348D1044F8253014
:1005B00023468C1053F824308C07240F00FA04F4DF
:1005C0002343054C08348D1044F8253030BD00001D
:1005D0000014014000F8FEBF00000140000020426E
:1005E000DC48006840F00100DA49086008464068CD
:1005F000D9490840D749486008460068D7490840AB
:10060000D44908600846006820F480200860084645
:10061000406820F4FE004860002088607047CD49A3
:10062000096821F48031CB4A11601146096821F430
:1006300080211160B0F5803F03D0B0F5802F0ED13E
:1006400006E0C449096841F48031C24A116007E0FC
:10065000C049096841F4A021BE4A116000E000BF12
:1006600000BF704710B501460022002300204A1148
:10067000012A02D1B74C236806E0022A02D1B54C08
:10068000236A01E0B34C636A01F01F020124944025
:100690001C4201D0012000E0002010BD38B5002030
:1006A00000900024002500BF3120FFF7DBFF054646
:1006B0000098401C00901DB90098B0F5A06FF3D1D0
:1006C0003120FFF7CFFF08B1012400E000242046CD
:1006D00038BD014600209F4A106820F0F80040EA2B
:1006E000C100106070479E490860704702460020B4
:1006F000984B586820F47C1042EA01031843954B4C
:100700005860704796490866704701460020914A34
:10071000506820F003000843506070478D484068DF
:1007200000F00C007047014600208A4A506820F013
:10073000F00008435060704701460020854A506829
:1007400020F4E06008435060704701460020814A71
:10075000506820F4605040EAC1005060704729B1F1
:100760007C4A527A02437B4B5A7204E0794A527AAD
:100770008243784B5A7270477A4908607047014645
:100780000020744A506820F440400843506070478D
:100790000021754A11706F4A82F82010012802D09A
:1007A000042808D103E001216F4A117004E00521FB
:1007B0006D4A117000E000BF00BF70476B490860D0
:1007C00070476449096A0143624A11627047674988
:1007D00044390860704730B500210022002400230E
:1007E0005C4D6D6805F00C0121B1042905D0082984
:1007F00023D105E05E4D056022E05D4D05601FE000
:10080000544D6D6805F47012022505EB9242514D6E
:100810006D6805F480341CB9564D554305600BE0F6
:100820004C4D6D6815F4003F03D0524D55430560A3
:1008300002E04F4D5543056002E04D4D056000BF9D
:1008400000BF444D6D6805F0F00109094A4D6B5C2D
:100850000568DD4045603F4D6D6805F4E061090ABB
:10086000454D6B5C4568DD4085603A4D6D6805F42B
:100870006051C90A404D6B5C4568DD40C560354D2F
:100880006D6805F44041890B3C4D6B5CC568B5FB58
:10089000F3F5056130BD29B12E4A526902432D4B53
:1008A0005A6104E02B4A526982432A4B5A617047CD
:1008B00029B1284A92690243264B9A6104E0254AED
:1008C00092698243234B9A61704729B1214AD269C8
:1008D0000243204BDA6104E01E4AD26982431D4B79
:1008E000DA61704729B11B4AD2680243194BDA60BA
:1008F00004E0184AD2688243164BDA60704729B187
:10090000144A12690243134B1A6104E0114A126936
:100910008243104B1A617047144940390860704790
:100920000F49C86470470B49C87170470948406A4D
:1009300040F0807007494862704701460020054A30
:1009400092680A4201D0012000E00020704701496E
:1009500088727047001002400000FFF8FFFFF6FEAB
:1009600000004242D800424220100240800442422D
:1009700000127A0000093D000C0000201C0000203D
:1009800010B50446D749601A8C422BD006DCD648F5
:10099000201813D0B0F5806F38D119E0B0F5806F12
:1009A0002AD0B0F56C4F31D101218803FFF79AFFAF
:1009B00000214FF48040FFF795FF28E00121480413
:1009C000FFF79DFF00214FF40030FFF798FF1EE076
:1009D00001218804FFF793FF00214FF48020FFF7E7
:1009E0008EFF14E00121C804FFF789FF00214FF4B6
:1009F0000020FFF784FF0AE001210805FFF77FFFD1
:100A000000214FF48010FFF77AFF00E000BF00BF25
:100A100010BD2DE9F04786B005460E460024A246DB
:100A200000BF00BF00272F462C8A4CF6FF70044001
:100A3000F08804432C82AC894EF6F3100440B08851
:100A400031890843718908430443AC81AC8A4FF66D
:100A5000FF400440B0890443AC8201A8FFF7BBFE0D
:100A6000A248874202D1DDF810A001E0DDF80CA019
:100A70000AEBCA0000EB0A1031688900B0FBF1F8FC
:100A80006420B8FBF0F004012009642101FB108907
:100A9000322000EB0910B0FBF1F000F00F0004432E
:100AA0002C8106B0BDE8F0874FF41651016000219B
:100AB0008180C18001810C214181002181817047A9
:100AC00010B502460020108A4FF2FF0318400B8831
:100AD0004C8823438C882343CC88234318431082BB
:100AE00010BD0021018041808180C180704721B10B
:100AF000828942F40052828104E082894DF6FF73BC
:100B00001A4082817047F0B5034600240026002574
:100B100000201846C1F3421401F01F06012707FA0E
:100B200006F5012C01D10C3004E0022C01D110306B
:100B300000E014301AB107682F43076002E007682D
:100B4000AF430760F0BD1AB1838A0B43838202E092
:100B5000838A8B4383827047028A4FF6F0731A4070
:100B60000282028A0A430282704782894FF2FF732F
:100B70001A40828182890A438281704721B1828929
:100B800042F00202828104E082894FF6FD731A402E
:100B900082817047028A4FF6DF731A400282028A0E
:100BA0000A430282704721B1028A42F480420282E3
:100BB00004E0028A4BF6FF731A4002827047C1F3C9
:100BC00008028280704701468888C0F30800704799
:100BD000818941F0010181817047028BD2B2028389
:100BE000028B42EA012202837047028B02F47F42A9
:100BF0000283028B0A430283704721B1828A42F04A
:100C00002002828204E0828A4FF6DF731A408282D9
:100C1000704721B1828A42F01002828204E0828A07
:100C20004FF6EF731A408282704721B1828A42F0F8
:100C30000802828204E0828A4FF6F7731A408282A9
:100C40007047828A4FF6FB731A408282828A0A4377
:100C50008282704721B1828A42F00202828204E0DD
:100C6000828A4FF6FD731A40828270470246002046
:100C700013880B4201D0012000E000207047CA43D6
:100C80000280704770B502460B4600240021002503
:100C90000020C3F3421503F01F01012606FA01F1FB
:100CA000012D02D19689314006E0022D02D1168A2B
:100CB000314001E0968A31401C12012606FA04F404
:100CC0001688344011B10CB1012000E0002070BD45
:100CD00010B5002200230A1201249440A3B2DC4381
:100CE000048010BD004C004000BCFFBF0038014034
:100CF00031490143314A1160704770B5002100232A
:100D00000F22C4780CB32D4C246804F4E064C4F5BD
:100D1000E064210AC1F10403CA40447804FA03F1F3
:100D20008478144021430901254C0678A1550478A4
:100D300004F01F050124AC4005786D114FF0E0264A
:100D400006EB8505C5F8004109E0047804F01F05AD
:100D50000124AC401B4D0678761145F8264070BD45
:100D6000194A0A400243154B1B1F1A60704739B1DC
:100D7000124A121D12680243104B1B1D1A6006E036
:100D80000E4A121D126882430C4B1B1D1A607047DD
:100D9000042808D14FF0E021096941F004014FF027
:100DA000E022116107E04FF0E021096921F0040120
:100DB0004FF0E022116170470000FA050CED00E0F1
:100DC00000E400E080E100E080FFFF1F014600201A
:100DD000FE4A106800F03800084310607047FB4975
:100DE000096821F00801F94A1160114609680143B8
:100DF00011607047F549096821F01001F34A11604C
:100E000011460968014311607047F148EF49486095
:100E1000F04848607047EE48EC494860ED4848604B
:100E20007047EA48006940F08000E849086170476F
:100E3000E648006940F08000E449086170470420FA
:100E4000E249C96811F0010F01D001200EE0DF492D
:100E5000C96811F0040F01D0022007E0DB49C9681E
:100E600011F0100F01D0032000E00420704700B5FE
:100E700002460423FFF7E3FF034603E0FFF7DFFF2B
:100E80000346521E012B01D1002AF7D102B90523D6
:100E9000184600BD30B5044604254FF43020FFF756
:100EA000E6FF0546042D17D1C848006940F002004E
:100EB000C649086108464461006940F04000086185
:100EC0004FF43020FFF7D3FF0546C048006941F6D4
:100ED000FD710840BD490861284630BD10B50424A5
:100EE0004FF43020FFF7C3FF0446042C16D1B74857
:100EF000006940F00400B54908610846006940F007
:100F0000400008614FF43020FFF7B1FF0446AF48BE
:100F1000006941F6FB710840AC490861204610BDEC
:100F200000B502460423FFF78AFF034603E0FFF7FC
:100F300086FF0346521E012B01D1002AF7D102B9C8
:100F40000523184600BD10B504244FF43020FFF7E8
:100F5000E7FF0446042C16D19C48006940F00400C9
:100F60009A4908610846006940F0400008614FF462
:100F70003020FFF7D5FF04469448006941F6FB7125
:100F8000084092490861204610BD00208F49C96978
:100F900011F0020F01D0012000E00020704730B5B1
:100FA000A5250424FFF7F1FF00B100254FF4302000
:100FB000FFF75DFF0446042C3AD1854883498860D9
:100FC000844888600846006940F0200008610846AF
:100FD000006940F0400008614FF43020FFF747FF00
:100FE0000446042C1BD17948006941F6DF710840A2
:100FF000764908610846006940F0100008617648AB
:101000000580E002FFF733FF0446052C10D06F483F
:10101000006941F6EF7108406C49086108E0052C51
:1010200006D06A48006941F6EF71084067490861D7
:10103000204630BD78B506460C46042500200090B9
:10104000E802FFF714FF0546042D24D15F4800692C
:1010500040F001005D4908613480E802FFF707FFB6
:101060000546042D10D1B01C0090200C009908807A
:10107000E802FFF7FCFE05465448006941F6FE71A0
:1010800008405249086106E05048006941F6FE7187
:1010900008404E490861284678BD70B504460D46A3
:1010A0000426F002FFF7E3FE0646042E11D147485E
:1010B000006940F00100454908612580F002FFF712
:1010C000D6FE06464148006941F6FE7108403F4998
:1010D0000861304670BD70B505460E460424E00236
:1010E000FFF7C5FE0446042C17D1394837498860FC
:1010F000384888600846006940F0100008612E807A
:10110000E002FFF7B4FE0446052C06D02F48006924
:1011100041F6EF7108402D490861204670BD2DE968
:10112000F04304464FF6FF763746B046B1460425F5
:10113000E443E6B2C4F30727C4F307484FEA14694F
:10114000E802FFF794FE0546042D49D120481F49C7
:101150008860204888600846006940F010000861F7
:10116000FF2E06D01C4808300680E802FFF77FFEFD
:101170000546042D08D1FF2F06D017480A300780F6
:10118000E802FFF774FE0546042D0AD1B8F1FF0FFF
:1011900007D011480C30A0F80080E802FFF767FE86
:1011A0000546042D0AD1B9F1FF0F07D00A480E30C9
:1011B000A0F80090E802FFF75AFE0546052D0FD073
:1011C0000248006941F6EF71084007E00020024044
:1011D00023016745AB89EFCD00F8FF1F6649086121
:1011E0002846BDE8F08330B5054604244FF430208E
:1011F000FFF73DFE0446042C41D160485E498860FB
:101200005F4888600846006940F020000861084691
:10121000006940F0400008614FF43020FFF727FEDE
:101220000446042C22D15448006941F6DF7108407D
:10123000514908610846006940F0100008611DB17D
:1012400000205049088002E0A5204E4908804FF454
:101250003020FFF70CFE0446052C10D046480069EC
:1012600041F6EF7108404449086108E0052C06D0BA
:101270004148006941F6DF7108403F490861204656
:1012800030BDF0B505460E46174604243B483A49A2
:1012900088603B488860E002FFF7E9FD0446042CC3
:1012A00019D13548006940F010003349086147F012
:1012B000F800304328433349891C0880E002FFF7D7
:1012C000D6FD0446052C06D02B48006941F6EF7187
:1012D0000840294908612046F0BD2748C0698008B8
:1012E00070472548006A704700202349096811F0BB
:1012F000200F01D0012000E00020704729B11E4AD4
:10130000126902431C4B1A6104E01B4A12698243B2
:10131000194B1A61704701460020012908D1164A6D
:10132000D26912F0010F01D0012008E0002006E090
:10133000114AD2680A4201D0012000E00020704723
:101340000D49C860704704200B49C96811F0010FAE
:1013500001D001200EE00849C96811F0040F01D046
:10136000022007E00449C96811F0100F01D00320E2
:1013700000E0042070470000002002402301674580
:10138000AB89EFCD00F8FF1F0E49086070470D498B
:10139000486070470B49886070474AF6AA2009499F
:1013A000086070474CF6CC4006490860704701461B
:1013B0000020044AD2680A4201D0012000E0002047
:1013C00070470000003000400CB5002001900090F4
:1013D0004748006840F480304549086000BF4448F1
:1013E000006800F4003000900198401C01900098C3
:1013F00018B90198B0F5A06FF1D13D48006810F41C
:10140000003F02D00120009001E0002000900098F1
:10141000012843D13748006840F010003549086082
:101420000846006820F0030008600846006840F0A5
:10143000020008602E4840682D4948600846406810
:1014400048600846406840F480604860084640684C
:1014500020F47C1048600846406840F4E81048607A
:101460000846006840F08070086000BF20480068AF
:1014700010F0007FFAD01E48406820F003001C499D
:1014800048600846406840F00200486000BF1848C5
:10149000406800F00C000828F9D101E000BFFEE729
:1014A0000CBD10B5FFF790FF10BD10B510480068D7
:1014B00040F001000E490860084640680E490840A7
:1014C0000B494860084600680C4908400849086014
:1014D0000846006820F4802008600846406820F430
:1014E000FE00486000208860FFF7DBFF10BD0000B1
:1014F00000100240002002400000FFF8FFFFF6FE4F
:1015000010B5FFF7D2FF00F04FF800F069F800F0D7
:10151000A6F800F0CFF800F00DF900F023F900F084
:101520009CF901F0F9FD17A000F0ABF910BD30B542
:101530001A4800684FF47A72B0FBF2F1B1F1807F83
:1015400000D31DE021F07F40401E4FF0E0225061AB
:1015500050170F22002807DA13071D0E104B00F05A
:101560000F04241F1D5503E013071C0E0D4B1C54C4
:1015700000BF00204FF0E02290610720106100BF03
:1015800030BD00005B44454255475D3A5379737462
:10159000656D205374617274210D0A00CC550008EA
:1015A00018ED00E000E400E008B501211020FFF78D
:1015B0007FF94FF40050ADF8000010208DF80300C3
:1015C00003208DF8020069460448FEF7DBFE4FF465
:1015D00000510248FEF781FF08BD000000100140E5
:1015E00000B585B0012144F20400FFF761F94FF422
:1015F0000070ADF8100018208DF8130003208DF84E
:10160000120004A92948FEF7BDFE4FF48060ADF832
:10161000100004208DF8130004A92448FEF7B2FE40
:101620004FF4E13000900020ADF80400ADF8060062
:10163000ADF80800ADF80C000C20ADF80A006946C2
:101640001B48FFF7E6F9012240F225511848FFF741
:101650005AFA01211648FFF74AFA05B000BD08B54D
:101660004FF4A060FFF744FB25208DF80000002018
:101670008DF801008DF8020001208DF80300684606
:10168000FFF73BFB08BD10B504460BE000BF80210F
:101690000748FFF7EBFA0028F9D021780448FFF754
:1016A0008EFA641C20780028F0D110BD000801409B
:1016B0000038014000B585B001210420FFF7F8F89B
:1016C00001214804FFF701F90420ADF810001820AB
:1016D0008DF8130003208DF8120004A91F48FEF7AF
:1016E00051FE0820ADF8100004208DF8130004A965
:1016F0001A48FEF747FE4FF4E13000900020ADF8A5
:101700000400ADF80600ADF80800ADF80C000C20A0
:10171000ADF80A0069461248FFF77BF9012240F252
:1017200025510F48FFF7EFF901210D48FFF7DFF9C9
:1017300005B000BD08B54FF4A060FFF7D9FA262028
:101740008DF8000000208DF801008DF802000120C6
:101750008DF803006846FFF7D0FA08BD0008014085
:101760000044004000B585B001210820FFF7A0F833
:1017700001218804FFF7A9F84FF48060ADF810004C
:1017800018208DF8130003208DF8120004A9464894
:10179000FEF7F8FD4FF40060ADF8100004208DF85E
:1017A000130004A94048FEF7EDFD4FF416500090D9
:1017B0000020ADF80400ADF80600ADF80800ADF863
:1017C0000C000C20ADF80A0069463848FFF721F9F3
:1017D000012240F225513548FFF795F901213348A0
:1017E000FFF785F905B000BD10B5044621462F4826
:1017F000FFF7E5F900BF80212C48FFF737FA0028F2
:10180000F9D010BD10B5044620212848FFF72EFA64
:1018100008B9002010BD2548FFF7D5F92070012038
:10182000F8E708B5002000900AE004E09DF80010F9
:101830001E48FFF7C4F96846FFF7E4FF0028F5D11A
:10184000F3E770B505460E46002403E0285DFFF778
:10185000CBFF641CB442F9DB70BD08B54FF4A06047
:10186000FFF746FA27208DF8000000208DF80100D0
:101870008DF8020001208DF803006846FFF73DFA5D
:1018800008BD10B504460BE000BF80210748FFF7F4
:10189000EDF90028F9D021780448FFF790F9641C8D
:1018A00020780028F0D110BD000C01400048004015
:1018B0002DE9FC4706460F4690464FF0000A0024EB
:1018C0000420009000254FF000090196FFF7A3FACD
:1018D0004FF0010A3420FFF733FD00BF07E01D4938
:1018E0004A1402FB0410FFF7D5FA0090641C54451B
:1018F00003D29DF800000428F1D0002515E04FF038
:10190000000903E009F101001FFA80F957F82510DA
:101910000198FFF78FFB042802D0B9F10A0FF1DB21
:101920000198001D0190681C85B24545E7DBFFF773
:101930007FFABDE8FC8730B5034600201C4600BF97
:1019400005E0256841F82050241D451CA8B29042AE
:10195000F7DB30BD00E8000870B505460C46002CEA
:1019600002DC4FF0FF3070BD2246F7A1284603F09D
:10197000EFFC0020F7E7014605E0002001E0421CF3
:10198000D0B26428FBDB0A00A1F10101F5D1704758
:1019900070B592B005460E4614461CB94FF0FF30A4
:1019A00012B070BD31460FA8FFF7D6FF0FAB22462D
:1019B000E6A101A803F0CCFC01A8FFF764FE4FF4F8
:1019C0006170FFF7D8FF2846FFF75DFE4FF46170A6
:1019D000FFF7D1FF0020E3E710B504462046FFF7EC
:1019E00052FE10BD2DE9F047FAB081460D4616466D
:1019F0001F4600244FF011300090284603F0F8FBFA
:101A0000019000BF05E0295DA01C4DF82010601C6E
:101A1000C4B2284603F0ECFBA042F4D8304603F0F1
:101A2000E7FB8046284603F0E3FB801C4DF820804E
:101A3000002409E0284603F0DBFBE11C0144325D91
:101A40004DF82120601CC4B2304603F0D1FBA04207
:101A5000F0D8384603F0CCFB8046284603F0C8FB9C
:101A600000F1030A304603F0C3FB50444DF82080D8
:101A700000240EE0284603F0BBFB211D00EB01080B
:101A8000304603F0B5FB40443A5D4DF82020601C21
:101A9000C4B2384603F0ACFBA042EBD8284603F0B2
:101AA000A7FB00F1040A304603F0A2FB824438464B
:101AB00003F09EFB50441FFA80F842466946A8484E
:101AC000FFF7F6FE7AB0BDE8F0872DE9F041C2B02D
:101AD00080460D4616461F460024412201A9404675
:101AE000FFF729FF0198B0F1FF3F01D0019820B91D
:101AF0004FF0FF3042B0BDE8F081002406E0A01CAA
:101B000001A911F820002855601CC4B20298A04217
:101B1000F5D8002408E00298C01C204401A911F85F
:101B200020003055601CC4B20298801C01A951F8F5
:101B30002000A042EFD800240EE00298001D029978
:101B4000891C01AA52F821100844204401A911F867
:101B500020003855601CC4B20298C01C0299891C30
:101B600001AA52F82110084401A951F82000A0420E
:101B7000E3D80120BEE730B50446002004E0151884
:101B80004D5D2554451CE8B29842F8DB0025E5542C
:101B900030BD2DE9F0418EB005460E4614461F4675
:101BA000704903C9CDE90C012A466FA1764803F0BC
:101BB000CFFB7548FFF765FE3146284603F006FB6C
:101BC000724908602146284603F000FB6F494860CF
:101BD0003946284603F0FAFA6C49886008460068DE
:101BE00030B90846406818B908468068002871D0A6
:101BF00066480068E0B1304603F0FAFA00F0FF08EA
:101C0000624811234246016804A8FFF7B4FF04A903
:101C10005F4803F0F4FA58B104AB5D4A5DA15A483D
:101C200003F096FB5848FFF72CFE0EB0BDE8F0819C
:101C30005648406898B1204603F0DAFA00F0FF08F1
:101C400052480C23424641685B48FFF794FF5A4ACA
:101C50005AA14D4803F07CFB4B48FFF712FE4B485E
:101C6000806800B35F4803F0C3FA484989680844B4
:101C70008078302807D100205B4908705BA15C4860
:101C800003F066FB0FE0574803F0B2FA3F4989685A
:101C900008448078312806D101205349087055A1A5
:101CA000534803F055FB54480078022803D13020F4
:101CB0008DF8300006E050480078012802D131202C
:101CC0008DF830004D480078022804D130208DF87E
:101CD000310007E027E049480078012802D131208F
:101CE0008DF8310046480078022803D130208DF865
:101CF000320006E042480078012802D131208DF8F8
:101D000032003B483F490CAA2B4BCDE90021029001
:101D10001F4A3DA1494803F01BFB0023022219463C
:101D2000184603F0EFF800BF7FE710B544A0FFF7B7
:101D300053FE45A0FFF7A5FD0023052219461846CE
:101D400003F0E0F8454A8BE0256C640041542B43D6
:101D5000495053454E443D25632C25730D0A000020
:101D600000E80008E05500085B44454255475D3AED
:101D7000204765742046726F6D20536572766572D8
:101D80002025730D0A000000C0040020B4040020C8
:101D90007F0100205B44454255475D3A4F726953CD
:101DA0004E20222573222C20526563534E2022257B
:101DB00073220D0A00000000EA0100205B44454246
:101DC00055475D3A4765742066726F6D20536572A2
:101DD000766572202A2A2A2A2A2A2A202225732274
:101DE0000D0A0000F2000020FE010020303000004B
:101DF000DA0100203031000084000020850000203E
:101E000086000020B2010020534E3D5B25735D54D7
:101E1000494D453D5B25735D4C494E4B5F535441E5
:101E20005455533D5B25735D54454D503D5B2573C3
:101E30005D56414C56453D5B25735D008206002092
:101E400041540D0A000000005B44454255475D3A8D
:101E500053656E642041540D0A0000007403002095
:101E6000DAA1E34803F074FAE148FFF70AFDE1A1C3
:101E7000E24803F0ABF9E24908600846006828B17F
:101E800000231E221946184603F03CF8DDA1DB486A
:101E900003F09CF9DC490860DCA3E0A2E2A1D7488A
:101EA000FFF777FEC821D54803F085F90020E14906
:101EB0000860D548006840B90220DF490870DFA0FB
:101EC000FFF7DFFC4FF0FF3010BD0120DA4908704A
:101ED000E2A0FFF7D6FC0120F6E710B50446012C7E
:101EE00014D1E5A0FFF778FDE7A0FFF7CAFC0023B7
:101EF00005221946184603F005F8C04AE9A1BC4876
:101F000003F026FABA48FFF7BCFC2CE0022C14D1EF
:101F1000EFA0FFF761FDF2A0FFF7B3FC002305225D
:101F20001946184602F0EEFFB44AF4A1B04803F097
:101F30000FFAAF48FFF7A5FC15E0032C13D1FAA068
:101F4000FFF74AFDFCA0FFF79CFC00230522194681
:101F5000184602F0D7FFA94AFEA1A54803F0F8F9F8
:101F6000A348FFF78EFCA3A1A44803F02FF9A449CE
:101F700008600846006828B100231E22194618464A
:101F800002F0C0FFA1A3A5A2A7A19C48FFF701FEF4
:101F9000C8219A4803F00FF90020A649086010BD37
:101FA00030B58DB004460D462B462246F4A1684656
:101FB00003F0CEF96846FFF70FFD2B462246F6A147
:101FC0008B4803F0C5F98A48FFF75BFC0023192210
:101FD0001946184602F096FF884AF8A1844803F093
:101FE000B7F98348FFF74DFC82A1844803F0EEF86F
:101FF000834908600846006878B184A387A28AA153
:102000007E48FFF7C6FDC8217C4803F0D4F80023C2
:1020100032221946184602F075FF7AA1774803F07C
:10202000D5F87949086079A37CA27FA17348FFF7AE
:10203000B0FDC821714803F0BEF800207D4908605A
:102040007148006848B90220E8490870E8A0FFF725
:1020500018FC4FF0FF300DB030BD0120E34908708F
:10206000EBA0FFF70EFC0120F5E730B58DB004467C
:102070000D46EEA0FFF7B0FCF0A0FFF702FC002336
:1020800005221946184602F03DFF5C4AF2A1584865
:1020900003F05EF95648FFF7F4FB56A1574803F0EA
:1020A00095F8574908600846006828B100231E22A9
:1020B0001946184602F026FF54A358A25AA14F48C9
:1020C000FFF767FDC8214D4803F075F80020594916
:1020D00008602B462246EBA1684603F039F96846B2
:1020E000FFF77AFC6A46EFA1414803F031F9404816
:1020F000FFF7C7FB00230A221946184602F002FF29
:102100003E4AEDA13A4803F023F93948FFF7B9FBFD
:1021100038A13A4803F05AF839490860084600687F
:1021200028B100231E221946184602F0EBFE35A105
:10213000324803F04BF83449086034A337A23AA17F
:102140002E48FFF726FDC8212C4803F034F8002064
:10215000384908602C48006848B90220E2490870F4
:10216000E2A0FFF78EFB4FF0FF300DB030BD012035
:10217000DD490870E5A0FFF784FB0120F5E710B505
:10218000E9A0FFF729FC002305221946184602F0B2
:10219000B9FE1A4AE7A1164803F0DAF81448FFF727
:1021A00070FB14A1154803F011F8154908600846A2
:1021B000006828B100231E221946184602F0A2FE2C
:1021C00010A10E4803F002F80F49C9E15B444542F3
:1021D00055475D3A53656E6420224154222C207489
:1021E00068656E2072656320222573220D0A000047
:1021F000C0040020627573790000000074030020A1
:102200008C0000204F4B0000880000205D434C4FA5
:1022100053455F56414C56453D5B00005D53455468
:102220005F54494D453D5B005345545F534E3D5B04
:102230000000000000000020840000205B444542B4
:1022400055475D3A436F6E6E656374204D6F6475DC
:102250006C65204661696C0D0A0000005B444542D4
:1022600055475D3A436F6E6E656374204D6F6475BC
:102270006C65204F4B0D0A0041542B43574D4F4482
:10228000453D310D0A0000005B44454255475D3A2B
:1022900053656E642041542B43574D4F44453D31A7
:1022A0000D0A00005B44454255475D3A53656E6434
:1022B000202241542B43574D4F44453D31222C2081
:1022C0007468656E20726563202225732200000009
:1022D00041542B43574D4F44453D320D0A000000F9
:1022E0005B44454255475D3A53656E642041542B2B
:1022F00043574D4F44453D320D0A00005B44454273
:1023000055475D3A53656E64202241542B43574D27
:102310004F44453D32222C207468656E20726563FF
:10232000202225732200000041542B43574D4F4477
:10233000453D330D0A0000005B44454255475D3A78
:1023400053656E642041542B43574D4F44453D33F4
:102350000D0A00005B44454255475D3A53656E6483
:10236000202241542B43574D4F44453D33222C20CE
:102370007468656E2072656320222573220D0A0041
:1023800041542B43574A41503D222573222C22258C
:1023900073220D0A000000005B44454255475D3A38
:1023A00053656E642041542B43574A41503D2225CA
:1023B00073222C222573220D0A0000005B44454243
:1023C00055475D3A53656E64202241542B43574A6A
:1023D00041503D2E2E2E222C207468656E20726591
:1023E0006320222573220D0A0000000085000020D2
:1023F0005B44454255475D3A436F6E6E656374209A
:10240000526F75746572204661696C0D0A00000098
:102410005B44454255475D3A436F6E6E6563742079
:10242000526F75746572204F4B0D0A0041542B4357
:1024300049504D55583D310D0A0000005B4445425E
:1024400055475D3A53656E642041542B4349504DC6
:1024500055583D310D0A00005B44454255475D3AF1
:1024600053656E64202241542B4349504D55583DCD
:1024700031222C207468656E2072656320222573DA
:10248000220D0A0041542B43495053544152543DAC
:10249000342C22544350222C222573222C25730DD8
:1024A0000A0000005B44454255475D3A53656E643F
:1024B0002025730D0A0000005B44454255475D3AF4
:1024C00053656E64202241542B434950535441526A
:1024D000543D2E2E2E222C207468656E207265636A
:1024E00020222573220D0A00860000205B4445420D
:1024F00055475D3A436F6E6E65637420536572761F
:102500006572204661696C0D0A0000005B4445421B
:1025100055475D3A436F6E6E6563742053657276FE
:102520006572204F4B0D0A0041542B43574A4150CE
:102530003F0D0A005B44454255475D3A53656E6462
:10254000202241542B43574A41503F222C2074688B
:10255000656E2072656320222573220D0A0000003B
:102560000860F8A1F94802F031FEF9490860F9A1C4
:10257000F64802F02BFEF9490860AFF27033AFF273
:102580006432AFF25C31F148FFF703FBC821EF483A
:1025900002F011FE0020F2490860F248006828B1FC
:1025A000EB48006810B9ED48006840B10220EE49E0
:1025B0000870EEA0FFF765F94FF0FF3010BD012065
:1025C000E9490870F3A0FFF75CF90120F6E730B5A0
:1025D0008DB004460D46AFF2AC10FFF7FDF9AFF237
:1025E000A410FFF74EF9002305221946184602F001
:1025F00089FCD64AAFF2A011F04802F0A9FEEF48DC
:10260000FFF73FF9AFF21441D04802F0DFFDEC498B
:1026100008600846006828B10023192219461846A8
:1026200002F070FCAFF21C43AFF21042AFF208416F
:10263000C648FFF7AEFAC821C44802F0BCFD00202E
:10264000C74908602B462246AFF2C811684602F01F
:102650007FFE6846FFF7C0F9DAA0FFF712F94FF4E2
:10266000FA70FFF788F9B94ADCA1D44802F070FE8D
:10267000D248FFF706F9AFF28441B44802F0A6FD54
:10268000CF4908600846006828B10023192219467E
:10269000184602F037FCAFF29441AC4802F096FDC8
:1026A000B0490860DCA1A94802F090FDDC4908604F
:1026B000AFF2A843AFF29C42AFF29441A348FFF7B8
:1026C00068FAC821A14802F076FD0020A4490860FC
:1026D000D348006810B9A348006840B10120D1492F
:1026E0000870D1A0FFF7CDF801200DB030BD022059
:1026F000CC490870D6A0FFF7C4F84FF0FF30F4E7DC
:102700002DE9F0418EB004460D4617461E462B4675
:102710002246D9A101A802F01BFE01A8FFF75CF92F
:10272000DCA0FFF7AEF8002305221946184602F098
:10273000E9FB864ADEA1A14802F00AFE9F48FFF7A6
:10274000A0F8AFF25051814802F040FD9C4908606A
:102750000846006828B100231E221946184602F0D8
:10276000D1FBAFF25853AFF24C52AFF2445177481D
:10277000FFF70FFAC821754802F01DFD00207849C7
:1027800008603A46D6A101A802F0E2FD01A8FFF7D1
:1027900023F9D7A0FFF775F800230522194618463C
:1027A00002F0B0FB694AD9A1844802F0D1FD834808
:1027B000FFF767F8AFF2C451644802F007FD8049A3
:1027C00008600846006828B100231E2219461846F2
:1027D00002F098FBAFF2CC53AFF2C052AFF2B85157
:1027E0005A48FFF7D6F9C821584802F0E4FC002007
:1027F0005B490860AFF2CC30FFF7EEF8AFF2C430BF
:10280000FFF73FF8002305221946184602F07AFB2D
:102810004E4AAFF2BC31694802F09AFD6748FFF7B3
:1028200030F8AFF23061494802F0D0FC64490860EA
:102830000846006828B100231E221946184602F0F7
:1028400061FBAFF23863AFF22C62AFF224613F4814
:10285000FFF79FF9C8213D4802F0ADFC0020404938
:1028600008603246B5A101A802F072FD01A8FFF789
:10287000B3F83246B6A1514802F06AFD4F48FFF75F
:1028800000F8002305221946184602F03BFB2F4AA8
:10289000B8A14A4802F05CFD4848FEF7F2FFAFF2EB
:1028A000AC612A4802F092FC45490860084600687D
:1028B00028B100231E221946184602F023FBAFF26E
:1028C000BC61224802F082FC26490860AFF2C46372
:1028D000AFF2B862AFF2B0611C48FFF75AF9C821F5
:1028E0001A4802F068FC00201D4908601D48006875
:1028F00038B9ADA0FEF7C5FF4FF0FF300EB0BDE810
:10290000F081B0A0FEF7BDFFAFF20073AFF2F4624A
:10291000AFF2EC610D48FFF73CF9C8210B4802F01B
:102920004AFC00200E490860084802F061FC80461D
:102930004246AAA1214802F00BFD2048FEF7A1FF64
:102940000120DBE74552524F520000007403002083
:10295000900000204E6F20415000000094000020A5
:102960000000002088000020850000205B444542D4
:1029700055475D3A436865636B20666F7220436F0D
:102980006E6E65637420526F75746572204661695E
:102990006C0D0A005B44454255475D3A43686563E8
:1029A0006B20666F7220436F6E6E65637420526F8A
:1029B00075746572204F4B0D0A000000C0040020A2
:1029C0008C0000205B44454255475D3A4265666F86
:1029D00072652064656C61790D0A00005B444542B4
:1029E00055475D3A53656E64202241542B4349504C
:1029F00053544152543D2E2E2E20666F7220636830
:102A000065636B222C207468656E207265632022DA
:102A10002573220D0A000000414C524541445900E3
:102A2000A8000020860000205B44454255475D3ADF
:102A3000436865636B20666F7220436F6E6E6563DB
:102A40007420536572766572204F4B0D0A000000AA
:102A50005B44454255475D3A436865636B20666F4A
:102A60007220436F6E6E6563742053657276657273
:102A7000204661696C0D0A0041542B435753415065
:102A80003D222573222C222573222C352C330D0A4E
:102A9000000000005B44454255475D3A53656E6453
:102AA0002041542B43575341503D2E2E2E0D0A00EA
:102AB0005B44454255475D3A53656E64202241545C
:102AC0002B43575341503D2E2E2E222C20746865E7
:102AD0006E2072656320222573220D0A000000001B
:102AE00041542B43495041503D222573220D0A0089
:102AF0005B44454255475D3A53656E642041542B13
:102B000043495041503D2E2E2E0D0A005B44454254
:102B100055475D3A53656E64202241542B4349501A
:102B200041503D2E2E2E222C207468656E20726539
:102B30006320222573220D0A0000000041542B431C
:102B400049505345525645523D312C25730D0A00CC
:102B50005B44454255475D3A53656E642041542BB2
:102B60004349505345525645523D312C25730D0A69
:102B7000000000005B44454255475D3A53656E6472
:102B8000202241542B4349505345525645523D2E25
:102B90002E2E222C207468656E20726563202225FB
:102BA00073220D0A000000005B44454255475D3A20
:102BB0005365742041502B535441204661696C0D7C
:102BC0000A0000005B44454255475D3A5365742056
:102BD00041502B535441204F4B0D0A005B4445425A
:102BE00055475D3A546865206C656E677468206F60
:102BF0006620676C625F6D7367312069732025649E
:102C00000D0A000010B5F0A0FEF7E6FEF1A0FEF7F9
:102C100038FE00230A221946184602F073F9F34AD7
:102C2000F3A1FD4802F094FBFB48FEF72AFEAFF645
:102C30003C21EE4802F0CAFAF849086008460068EC
:102C400028B100231E221946184602F05BF9AFF6A0
:102C50004C21E64802F0BAFAF1490860AFF6542375
:102C6000AFF64822AFF64021E048FEF792FFC821B8
:102C7000DE4802F0A0FA0020EA490860E84800684F
:102C800028B9E9A0FEF7FDFD4FF0FF3010BDEDA023
:102C9000FEF7F7FD0120F9E72DE9F0439DB0074667
:102CA0000C4615461E46DDE924892B462246EBA13B
:102CB00004A88DE8400302F04BFB04A9384602F05B
:102CC000ACFA1DB0BDE8F08301F00F02092A04DC64
:102CD00001F00F023032427003E001F00F02373290
:102CE00042700922B2EB211F04DB302202EB2112D9
:102CF000027004E00A22C2EB1112413202707047E6
:102D00000246002009E0C0F1070341FA03F303F093
:102D1000010330331354431CD8B20828F3DB704747
:102D20004A78303A0B78303B03EB830302EB4302E3
:102D30000270704730B5034615460022002498788B
:102D4000302807DB9878392804DC9878303802EB93
:102D5000001214E09878612807DB9878662804DC74
:102D60009878573802EB001209E09878412806DB82
:102D70009878462803DC9878373802EB0012D87828
:102D8000302806DBD878392803DCD878303802447C
:102D900012E0D878612806DBD878662803DCD8787A
:102DA0005738024408E0D878412805DBD87846280F
:102DB00002DCD878373802448878302807DB8878F6
:102DC000392804DC8878303804EB001414E0887863
:102DD000612807DB8878662804DC8878573804EB9C
:102DE000001409E08878412806DB8878462803DC4F
:102DF0008878373804EB0014C878302806DBC878A8
:102E0000392803DCC8783038044412E0C8786128D7
:102E100006DBC878662803DCC8785738044408E025
:102E2000C878412805DBC878462802DCC8783738DE
:102E30000444101BA84202DCA01AA84201DD0120B4
:102E400030BD0020FCE710B501F072FA32218E4847
:102E500002F0B1F900208D49086032218C4802F05F
:102E6000AAF98C498A48FFF75BFF8A49891C884880
:102E7000401CFFF755FF8749091D8548801CFFF757
:102E80004FFF8449891D8248C01CFFF749FF8149D3
:102E900008317F48001DFFF743FF7E490A317C4817
:102EA000401DFFF73DFF7C480078022804D1012037
:102EB0007749C91F087407E077480078012803D1D3
:102EC00000207349C91F087474480078022804D18F
:102ED00001206F49C91F487407E070480078012835
:102EE00003D100206A49C91F4874012000F007FA85
:102EF000002302221946184602F004F8052000F0CB
:102F0000FEF900F034FA664961481330FFF708FF14
:102F10006349891C5E481430FFF702FF614800785E
:102F2000022805D100205A49C91F81F8240007E072
:102F30005C480078012803D15549C91F81F8240055
:102F4000594953482730FFF7EBFE5749C91C5048F1
:102F50002830FFF7E5FE5449891D4D482930FFF719
:102F6000DFFE514909314A482A30FFF7D9FE4E4960
:102F70000C3147482B30FFF7D3FE4B490F31444803
:102F80002C30FFF7CDFE4948007820B90020404999
:102F9000C91F81F8380001204449087039213C4894
:102FA000C01F00F085F8044620123949C91F81F876
:102FB000390081F83A403B213548C01FFEF741FCFB
:102FC00001F0F4F910BD000041542B5253540D0A86
:102FD000000000005B44454255475D3A53656E640E
:102FE0002041542B5253540D0A000000740300205A
:102FF0005B44454255475D3A53656E642022415417
:103000002B525354222C207468656E207265632005
:103010002225732200000000C00400208C00002044
:1030200088000020000000205B44454255475D3A7F
:103030004D6F64756C6520525354204661696C0D68
:103040000A0000005B44454255475D3A4D6F647588
:103050006C6520525354204F4B0D0A00534E3D5B7C
:1030600025735D434F3D5B25735D54454D503D5B7E
:1030700025735D56414C56453D5B25735D53544168
:1030800054453D5B25735D006E0400200800002060
:1030900027000020EA010020840000208500002095
:1030A00019010020860000207F010020FE01002081
:1030B00070B502460C46FF25FF2309E012F8010B0C
:1030C00080EA05011248405C80EA03051148435C30
:1030D0002000A4F10106B4B2F0D143EA052070BD8E
:1030E0002DE9F0410746884614461D4641463846BC
:1030F000FFF7DEFF064606F47F40B0EB042F05D154
:10310000F0B2A84202D10120BDE8F0810020FBE727
:10311000E5550008E556000810B545F25550FEF794
:1031200033F90520FEF733F940F60F60FEF732F968
:10313000FEF733F9FEF736F910BD10B5FEF72DF99D
:1031400010BD0000002106E0062100BF0A00A1F129
:10315000010399B2FAD10200A0F10100F4D1704745
:1031600008B501210420FDF7A3FB4FF48050ADF812
:10317000000010208DF8030003208DF8020069463E
:10318000B348FDF7FFF84FF48051B148FDF7A5F9BA
:1031900008BD08B501210420FDF78AFB4FF48050DB
:1031A000ADF8000003208DF8020048208DF80300E0
:1031B0006946A748FDF7E6F808BD08B501210420D7
:1031C000FDF776FB4FF48050ADF8000003208DF83A
:1031D000020010208DF8030069469D48FDF7D2F8E3
:1031E00008BD10B5FFF7BCFFFFF7E7FF4FF48051B4
:1031F0009748FDF772F93220FFF7A4FF4FF4805192
:103200009348FDF76CF94FF4F070FFF79BFF4FF414
:1032100080518F48FDF761F9FFF7BBFF4FF48051F4
:103220008B48FDF740F904463220FFF78BFF1CB9AD
:1032300001208849087002E00020864908704FF498
:10324000D770FFF77FFFFFF7B8FF4FF4805180483A
:10325000FDF743F97F48007810BD70B5044600259E
:10326000FFF7ABFF08251DE04FF480517848FDF7CC
:1032700036F914F0010F05D04FF480517448FDF772
:103280002CF904E04FF480517148FDF728F93C20F7
:10329000FFF758FF4FF480516D48FDF71EF9641099
:1032A000681EC5B2002DDFDC70BD70B5002500249E
:1032B000082520E04FF480516548FDF710F96410AF
:1032C0004FF480516248FDF708F9FFF762FF4FF4B1
:1032D00080515F48FDF7E7F808B144F080044620CC
:1032E000FFF730FFFFF769FF4FF480515848FDF7B3
:1032F000F4F8681EC5B2002DDCDC204670BD70B548
:1033000005460024002628E0FFF76BFF51480078AF
:10331000E0B9CC20FFF7A1FF4420FFF79EFFFFF7A5
:1033200060FFCC20FFF799FFBE20FFF796FFFFF765
:10333000BCFF49490870FFF7B8FF47494870084685
:103340000078497800EB0120204484B2C823002291
:103350001146104601F0D6FD761CAE42D4D394FB44
:10336000F5F084B23C490C702012487070BD10B565
:103370000021394A1278384B5B7802EB032290B275
:1033800041F6CC02904206DD424290B2324B1870B8
:1033900002125A700121304A127802F00F022F4BAC
:1033A0001A711A4612792E4B9A5C2C4B1A702A4AC3
:1033B00012781209284B5B7842EA0312521E274BFF
:1033C0001A711A461279642392FBF3F2234BDA70D6
:1033D0001A461279642392FBF3F403FB14221F4B69
:1033E0005A701A4652780A2392FBF3F21B4B9A70DA
:1033F0001A4652780A2392FBF3F403FB1422174B6C
:103400005A701A46D278302A07D12022DA701A462A
:103410009278302A01D120229A70104AD278303224
:10342000104B1A700D4A927830325A700B4A52780B
:1034300030329A70094A12783032DA70012902D19A
:1034400031221A7002E03022064B1A7010BD0000C3
:10345000000801401D01002002010020040100209D
:10346000090100201901002086B002251422F64926
:10347000684601F087FE17E005AA2946F348006870
:1034800001F04AFAFA2305220021084601F03AFD2C
:103490006C462146EE48006801F0FBFAFA2305224B
:1034A0000021084601F02EFDE6E71CB50125FFF7D7
:1034B000A9FBC1E100BFE7A0FEF7E3F9012D0FD1A1
:1034C00008E000230A221946184601F01BFDE9A076
:1034D000FEF7D7F9FEF729FCB0F1FF3FF1D0022546
:1034E000022D48D1ECA0FEF7CCF90120FEF7F5FC47
:1034F0000220F2490870F24801F07AFE0746394688
:10350000EF4801F058FEEF4801F072FE07463946D9
:10351000EC4801F050FEEC4801F06AFE07463946DF
:10352000E94801F048FEE84BE64AE549E748FEF77E
:10353000CCFA0446B4F1FF3F04D1E5A0FEF7A1F9AF
:103540000525B8E7DF49DE48FEF72AFD0446B4F159
:10355000FF3F0FD1ECA0FEF794F9DA49D848FEF707
:103560001FFD0446B4F1FF3F04D1F0A0FEF789F936
:103570000525A0E70325032D27D1F5A0FEF781F946
:10358000FCA1FEA0FEF771FD0446B4F1FF3F18D187
:103590000220FE490870F7A1F8A0FEF766FD044678
:1035A000B4F1FF3F09D10220F8490870FFF72AFB68
:1035B000B0A0FEF766F901257DE70120F349087008
:1035C00002E00120F14908700425042D7ED1B2E00B
:1035D000EFA0FEF756F90320B84908700023032234
:1035E0001946184601F08EFC08E000230A2219460D
:1035F000184601F087FCF0A0FEF743F9FEF795FBB3
:10360000B0F1FF3FF1D0FEF7BAFD0446B4F1FF3F41
:103610001AD1F0A0FEF735F9AA49A948FEF7C0FC77
:103620000446B4F1FF3F0FD1B7A0FEF72AF9A54930
:10363000A348FEF7B5FC0446B4F1FF3F04D1BBA09C
:10364000FEF71FF9052536E7CAA1CCA0FEF7BFFF9C
:103650000446B4F1FF3F07D10220CC490870E7A02F
:10366000FEF70FF9032526E70120FFF748FE0023A8
:1036700002221946184601F045FC0520FFF73FFEDF
:10368000FFF775FEE649E74801F0C7FD6421E6480B
:1036900001F091FD0522E549E548FFF74BFB0446A3
:1036A000012C0ED0E349DF4801F0A9FD48B9E249F9
:1036B000E24801F0A4FD20B9E149E24801F09FFD94
:1036C000F8B1E1A0FEF7DDF8DC4800E034E0DD49C8
:1036D000D44BD74ACDE900107B49D348FFF7DCFA39
:1036E000D349D24801F099FDCE49D24801F095FD69
:1036F000D249D14801F091FDD249D14801F08DFD68
:1037000007E0D8A0FEF7BDF86F4ADCA1C64801F07B
:103710001FFEC54801F06CFDC7B234223946C248CD
:10372000FEF736F9D7A0FEF7ACF8002305221946BC
:10373000184601F0E7FB4BE7052D7DD1D9A0FEF738
:10374000A0F801205D4908700320FEF7C6FBDEA348
:10375000DFA2E3A1E5A0FEF7D3FF0446B4F1FF3FEB
:1037600001D100BFA7E6012CE7D10120E2490860A2
:1037700005E300BFE0480068B0F5FA7F04D90020F7
:10378000DD490860012596E6DC4801F031FD00289E
:10379000EED9002302221946184601F0B3FBD74A9E
:1037A000D7A1DF4801F0D4FDDD48FEF76AF8DDA1BE
:1037B000D24801F00BFDDD49086008460068A0B161
:1037C000CE480078DA49087008460278D9A1D44872
:1037D00001F0BEFDD248FEF754F8C821C74801F0F9
:1037E000EAFC0020DD490860C4E7DDA1C34801F020
:1037F000EDFCDD4908600846006868B10020CC494E
:103800000870DAA0FEF73DF8C821BC4801F0D3FCEF
:103810000020D2490860ADE7DE49B84801F0D6FC87
:10382000DD490860DB490831B44801F0CFFCDA49D2
:103830004860D849103100E0A2E2B04801F0C6FC6F
:10384000D5498860D349A9E1E85700080002002063
:10385000040200205B44454255475D3A496E746F4F
:10386000204C6F6F705F4F75744F66416C6C0D0A22
:10387000000000005B44454255475D3A676F746F36
:10388000204C6F6F705F436865636B4D6F64756C40
:10389000654C696E6B0D0A005B44454255475D3AC5
:1038A000496E746F204C6F6F705F4C696E6B546F14
:1038B000526F757465720D0A000000007D010020D2
:1038C0002C010020540100207F01002000E80008A6
:1038D0005B44454255475D3A5265616420666C61C0
:1038E0007368206661696C2C207468656E20676F50
:1038F000746F204C6F6F705F476574535349446118
:103900006E6450570D0A00005B44454255475D3ACE
:1039100054727920746F206C696E6B20726F7574AD
:10392000657220616769616E0D0A00005B44454263
:1039300055475D3A676F746F204C6F6F705F4765D6
:103940007453534944616E6450570D0A00000000DF
:103950005B44454255475D3A496E746F204C6F6F2A
:10396000705F4C696E6B546F5365727665720D0AA9
:103970000000000031363137000000007777772EE5
:103980006D657465726E65742E636E00860000202E
:103990005B44454255475D3A496E746F20776869CC
:1039A0006C6528312920746F2073656E6420646112
:1039B00074610D0A000000005B44454255475D3AC2
:1039C0004D6F64756C65204C696E6B206572726F0B
:1039D000720D0A005B44454255475D3A4368656392
:1039E0006B20666F7220436F6E6E65637420526F3A
:1039F00075746572204661696C0D0A005B4445422E
:103A000055475D3A676F746F204C6F6F705F4C69FC
:103A10006E6B546F5365727665720D0A000000007C
:103A200019010020B20100201E060020AA0100207A
:103A3000A2010020BA010020CE010020C201002016
:103A4000E2010020DA0100205B44454255475D3A1F
:103A50004461746120646966666572656E74210DE7
:103A60000A0000005B44454255475D3A4461746179
:103A70002053616D65210D0A00000000534E3D5B2F
:103A800025735D005B44454255475D3A53656E645E
:103A9000204461746120746F205365727665720DE5
:103AA0000A0000005B44454255475D3A496E746F19
:103AB000204C6F6F705F47657453534944616E6467
:103AC00050570D0A00000000383838380000000058
:103AD0003139322E3136382E352E32353400000051
:103AE0003132333435363738000000004A594B4AFA
:103AF0002D424A51000000002001002074030020E4
:103B00005B44454255475D3A496E204150204D4F38
:103B100044452C2052656320222573220D0A0000A3
:103B2000C0040020434F4E4E45435400A0000020E7
:103B30007C0100205B44454255475D3A546865204E
:103B4000434F4E4E454354204368616E6E656C2072
:103B5000697320222563220D0A0000000000002066
:103B6000434C4F5345440000A40000205B444542B1
:103B700055475D3A436C6561722074686520455312
:103B800050383236365F436F6E6E6563744E756DB6
:103B90000D0A0000AC000020A00400201831D44819
:103BA00001F014FBD349C860D349D14801F00EFBA2
:103BB000D04908610846006800287DD00846406862
:103BC0000028FAD0084680680028F6D00846C06869
:103BD0000028F2D0084600690028EED00120C7492D
:103BE0000860002614E0C64802780921C5A0FDF748
:103BF000CFFE00230A221946184601F083F9BC4A79
:103C0000C3A1CD4801F0A4FBCB48FDF73AFE761CDA
:103C1000042EE8DBB848203801F0EAFAB549097902
:103C2000B44A1278891A081AC7B2B348203801F08A
:103C3000DFFA00F0FF08AF483B4642460168BF4844
:103C4000FDF799FFAC48183801F0D2FAA949097A72
:103C5000A84A1279891A081AC7B2A748183801F079
:103C6000C7FA00F0FF08A3483B4642464168B44803
:103C7000FDF781FFA048103801F0BAFA9D49097B91
:103C80009C4A127A891A081AC7B29B48103801F068
:103C9000AFFA00F0FF0897483B4642468168A948C2
:103CA000FDF769FF9448083801F0A2FA9149097CB0
:103CB000904A127B891A00E05AE0081AC7B28E486F
:103CC000083801F095FA00F0FF088A483B46424662
:103CD000C1689D48FDF74FFF984A9CA1964801F0A6
:103CE00037FB9548FDF7CDFD954A9FA1924801F01D
:103CF0002FFB9148FDF7C5FD924AA3A18E4801F024
:103D000027FB8D48FDF7BDFD8F4AA6A18A4801F02B
:103D10001FFB8948FDF7B5FDC821754801F04BFA36
:103D20000020A7490860FFF78EF885498348FEF711
:103D300037F90446002305221946184601F0E2F837
:103D4000804B7F4A7D499F48FDF74CFE9EA0FDF7C2
:103D500098FD002305221946184601F0D3F8C82122
:103D6000634801F028FA002095490860022523E401
:103D7000C8215F4801F01FFA002091490860F8E46B
:103D8000FFF798BB08B5022517E06A462946984810
:103D9000006800F0C1FDFA2306220021084601F068
:103DA000B1F8944C21469448006800F072FEFA2362
:103DB00006220021084601F0A5F8E6E786B0FDF7E7
:103DC000B6FB002000F013FD8B490860002000F0D6
:103DD0000EFD87490860032000215022874BCDE962
:103DE0000132CDE9031005200346854A0090AFF269
:103DF0006B0000F0E1FE032000215022814BCDE951
:103E00000132CDE90310062003467F4A0090AFF649
:103E1000651000F0D1FE0320002150227B4BCDE93C
:103E20000132CDE9031007200346794A0090AFF62E
:103E3000C71000F0C1FE59E0FFF77FF97548007820
:103E4000012817D141037448FCF749FB40F21223C3
:103E500000221146104601F055F84FF400516E480B
:103E6000FCF73BFB40F2122300221146104601F002
:103E700049F833E067480078022815D10103664805
:103E8000FCF72DFB1E2301220021084601F03AF821
:103E90004FF400516048FCF720FB1E230122002153
:103EA000084601F02FF819E05A480078032815D188
:103EB0004FF400515848FCF712FB1E230222002148
:103EC000084601F01FF84FF400515348FCF705FB7A
:103ED0001E2302220021084601F014F8074800685A
:103EE00020B106480068401C04490860A4E70000AF
:103EF00074030020A0040020CC000020200100203A
:103F00007C0100204A4F494E5F4F4B0D0A000000D4
:103F10005B44454255475D3A53656E6420224A4FE3
:103F2000494E5F4F4B222C207468656E207265638A
:103F300020222573220D0A00C00400202C0100203D
:103F4000540100207F010020EA0100205B4445422B
:103F500055475D3A4E657720535349442069732095
:103F6000222573220D0A00005B44454255475D3A05
:103F70004E657720526F75746572505720697320B3
:103F8000222573220D0A00005B44454255475D3AE5
:103F90004E657720534E20697320222573220D0A27
:103FA000000000005B44454255475D3A4E6577206E
:103FB000445420697320222573220D0A000000005A
:103FC0000000002000E800085B44454255475D3A88
:103FD00053617665205353494420616E6420526FCB
:103FE0007574657250572046696E6973680D0A00D2
:103FF000040200208206002000020020E8060020C3
:1040000024080020280800206409002068090020F6
:10401000A40A00207D01002000100140024600207B
:1040200005E011F8013B02F8013B431CD8B20B78C4
:10403000002BF6D1137070472DE9F04105460E466E
:1040400014460027FA480078002804DD112020706B
:104050000020BDE8F0812878012808D0022807D088
:10406000032802D0042804D100E000BF00BF00BF35
:1040700003E0012020700020EBE700BF00F0DAFF32
:10408000074605F10F013046FFF7C8FF8046384666
:1040900000F0D4FF002020704046DAE701460020FF
:1040A00002E0491C421CD0B20A78002AF9D17047BC
:1040B0002DE9F04105460F4614464FF00008DC4854
:1040C0000078002803DD12202070BDE8F0812878F8
:1040D000012808D0022807D0032802D0042804D1E0
:1040E00000E000BF00BF00BF02E001202070ECE74D
:1040F00000BF00F09FFF80463846FFF7CFFF06461F
:10410000272E05DD404600F099FF0B202070DCE7EC
:10411000394605F10F00FFF781FF404600F08EFFA2
:104120000020207000BFD0E7002400BF00F082FF15
:104130000446C0480068401CBE490860204600F0A4
:104140007DFF00F0CDFFF1E700B587B0032000212F
:104150003022B94BCDE90132CDE903104FF6FF70A3
:104160001F23B54ABC320090AFF2430000F024FD9B
:1041700006AAB2A11F2000F0AAFD07B000BD04E00E
:10418000002200F8012B4A1E91B20029F8DC70478A
:1041900030B54FF48C71AD48FFF7F1FFAB4B03F135
:1041A000380500240AE0002018705D603F20D873B5
:1041B0000021197438333835601C84B2042CF2DBCA
:1041C0000020187058603F20D873002119749F4850
:1041D0009F49086030BD30B54FF410719D48FFF71E
:1041E000CEFF80219C48FFF7CAFF9A4B03F14005A0
:1041F00000240AE05D613F2083F82D0000212E207D
:10420000C15440334035601CC4B2082CF2D30020A6
:1042100058613F2083F82D0000212E20C15400203A
:104220008E4908608B488E49086030BD00228D4B56
:104230001A708D49002004E0002201F8012B421C75
:10424000D0B20428F8DB0022884B1A70884B1A7011
:10425000884B1A60884B1A607047002074490870B8
:104260008649087086490870864908708649086042
:1042700070490860704710B500F02EFFFFF7EDFFA2
:10428000FFF7D4FFFFF7A7FFFFF782FFFFF75CFF01
:1042900000F023FF10BD7B480078012808D1644856
:1042A0000078FF2804D262480078401C60490870FA
:1042B000704776496B4A1278885C6B49095C734A8F
:1042C000515C01EBC0016A4A1170704710B50024BF
:1042D0006C48007801282AD100F0ACFE044654480E
:1042E0000078002804DD52480078401E50490870CC
:1042F0004F480078C0B961480078A8B9FFF7D9FFE6
:104300005B4800785949097888420DD0524858498D
:10431000097850F82100574908605B480068401C44
:104320005949086000F0A2FE204600F087FE10BD4B
:1043300010B5002453480078012811D100F07AFE0E
:1043400004463B48007840B94C480078FF2804D226
:104350004A480078401C49490870204600F06EFE2B
:1043600010BD10B5002400F065FE0446304800780A
:10437000C0B942480078A8B9FFF79BFF3C480078D5
:104380003A49097888420DD033483949097850F8BC
:104390002100384908603C480068401C3A490860E0
:1043A00000F05FFE204600F049FE10BD10B500246D
:1043B00034480078012822D100F03CFE04462F4802
:1043C0000078002818DD2D480078401E2B49087021
:1043D0000846007860B91648007828B9204600F0F1
:1043E0002DFEFFF7BEFF0AE0204600F027FE06E0A4
:1043F000204600F023FE02E0204600F01FFE10BD24
:1044000010B52048007890B9FFF753FF184800789E
:104410001649087010481649097850F821001549C6
:104420000860084600681449086000F00AFE10BDE4
:10443000100200201C020020C00B002075432F4FEB
:10444000532D49492049646C65000000A80A0020EA
:104450000C020020000D0020800C00202C02002007
:104460002402002014020020150200201202002065
:104470001302002028020020200200201102002048
:104480001A0200201902002008020020FC57000830
:1044900070B5002600F075FEC1480078012858D19B
:1044A000C048007820B1012804D0022809D103E0D7
:1044B00001250BE0002509E001250120B94908701C
:1044C00004E001250020B749087000BF00BF05B90E
:1044D00070BDB548046838E000F0ACFD0646A08C1D
:1044E00078B3A08C401E0004000CA08429D194F85D
:1044F000260010F0370F09D014F8260F20F03700EF
:10450000207001206070A4F1260402E0002084F8ED
:10451000270094F8260010F0080F12D104F12A04A5
:10452000A078A249097840EA0100A04908702078E3
:104530009F49085C617840EA010014F82A199C4AF6
:1045400050546469304600F079FD94F828001F2823
:10455000C2D100BFBCE74FF48F70704710B590F820
:104560002A2001F10B039B5C90F82B40A34301F13F
:104570000B04A35423469B5C23B98B7A90F82C4000
:10458000A3438B7210BD2DE9F04F05460F469046B0
:104590009946A87A87490E5C05F10B00805D11F8F9
:1045A00000B00BEBC60000F0FF0A834850F82A4029
:1045B000002004F12004A0802760A07920EA0800F0
:1045C000A07184F80790A079A4F1200410F0080FDE
:1045D0000DD194F82C007549097808437349087087
:1045E0007348805D94F82B1008437149885529461B
:1045F0002046FFF7B3FF5046BDE8F08F10B56F4A75
:104600001268D0616D4A126892F82A3000F10B02EC
:10461000D25C6A4B1B6893F82B301A43674B1B68BC
:1046200093F82A4000F10B031A55827A634B1B68FA
:1046300093F82C301A438272604A126892F82A105A
:104640005B4A525C5D4B1B6893F82B309A43584B86
:104650005A541A46525C42B9584A126892F82C30A1
:10466000524A12789A43514B1A7010BD002383723C
:1046700000F10B01002204E0002301F8013B531C70
:10468000DAB2042AF8DB704705E011F8013B00F8C4
:10469000013B531E9AB2002AF7DC70472DE9F84F10
:1046A00005460E4617469846DDE90BABDDF8289027
:1046B0000020009000F0BEFC009041480468002CEF
:1046C00068D054F8140F3E490860009800F0B6FC1A
:1046D00044F8146C25750020A074E074208244F81E
:1046E00010AC44F8089C44F80C7C24F804BC24F872
:1046F000028CE810A07505F007006075A17D01200F
:1047000088402076617D01208840E0750020A0600F
:10471000E0603F206076A4F114044FF000014FF0F8
:104720002E000155204600F02BFD204600F0D6FC5F
:1047300000F080FC0090204840F825401A480068AE
:1047400060610020A0611848006810B11648006838
:1047500084611548046004F12A04A078134909789B
:1047600040EA01001149087020781149085C61781D
:1047700040EA010014F82A190D4A505411480078F3
:1047800000F101000F490870009800F057FC00206C
:10479000BDE8F88F009800F051FC4220F8E70000D7
:1047A00019020020300200202C02002014020020F8
:1047B00015020020FC570008800C00202002002079
:1047C000240200201A02002070B50446002620783A
:1047D000012801D0002070BD00F02CFC0646656861
:1047E00000206060304600F029FC2846F3E770B5F1
:1047F00005460026EC480078002801DD002070BD49
:1048000000F018FC0646E9480468006820B1E74853
:1048100000684068E5490860304600F00FFC5CB174
:10482000012020700020208165603F20E07300217E
:1048300021742046FFF71AFF2046E0E72DE9F047F4
:104840000446884615464FF000092078012804D018
:10485000012028702046BDE8F087D3480078002862
:1048600003DD0F2028702046F5E700F0E3FB8146CA
:10487000A07A08B1012700E00027B8F1000F03D0AB
:10488000B8F1010F3ED11BE09FB93F20E07300213A
:10489000217400202070C5480068606000202081DD
:1048A000C2480460484600F0C9FB0020287000267A
:1048B00005E0484600F0C2FB49202870264628E063
:1048C00005E00023022219462046FFF75CFEA07A8D
:1048D0000028F6D13F20E0730021217400202070D1
:1048E000B2480068606000202081B04804604846FB
:1048F00000F0A4FB012F01D1FFF733FD0020287049
:10490000002606E0484600F099FB0720287026465E
:1049100000BF00BF30469EE72DE9F04105460F4637
:1049200014464FF000082878012804D00120207098
:104930000020BDE8F0819C480078002803DD0220BB
:1049400020700020F5E79A480078002803DD0D204C
:1049500020700020EDE700F06DFB80466E6846B1E8
:1049600000206860404600F069FB0020207030465F
:10497000DFE79048006890F8260040F002008D497B
:10498000096881F8260000208A49096881F8270013
:104990008848006887842846FFF730FE404600F0CC
:1049A0004DFBFFF7DEFC00F045FB804681480068C8
:1049B00090F8270020B101280DD002280AD105E087
:1049C0007C480068066A002020700DE000260E205A
:1049D000207009E000BF294676480068FFF7BEFD59
:1049E00000260A20207000BF00BF0020714909681E
:1049F00081F826006F49096881F827006D49096828
:104A0000C8616C4909680862404600F017FB3046EF
:104A10008FE72DE9F04104460F4615464FF0000898
:104A20002078012804D0012028700020BDE8F08102
:104A300000F000FB8046A07A20B300267FB1012F52
:104A40000CD107E002231A4600212046FFF79BFD08
:104A5000701CC6B2A07A0028F4D109E000BF02237E
:104A60001A4600212046FFF78EFD701CC6B200BF1B
:104A700000BF404600F0E2FAFFF773FC0E202870FA
:104A80003046D3E7404600F0D9FA0020287000BF36
:104A9000CCE770B504460D4600262078012801D0E9
:104AA000012070BD00F0C6FA0646A07A60B100236E
:104AB000022229462046FFF766FD304600F0BEFA86
:104AC000FFF74FFC0020ECE7606820B1304600F0B3
:104AD000B5FA1420E5E76560304600F0AFFA002033
:104AE000DFE72DE9F04104460E4615460027207801
:104AF000012802D00120BDE8F08100F09BFA0746B2
:104B0000A07AE8B115F0010F0AD005E000230222D7
:104B100031462046FFF737FDA07A0028F6D105E0A0
:104B20000023022231462046FFF72DFD384600F0D3
:104B300085FA15F0040F01D1FFF713FC0020DAE726
:104B4000606820B1384600F079FA1420D3E7666037
:104B5000384600F073FA0020CDE72DE9F04704460F
:104B60000D464FF000092078012802D00120BDE851
:104B7000F08700F05FFA8146A07A287204F10B07F3
:104B800005F10408002605E017F8010B08F8010BF1
:104B9000701CC6B2042EF7DB60682860484600F03F
:104BA0004DFA0020E3E70000100200200C02002074
:104BB00011020020200200202DE9F04F85B00746A9
:104BC000884691461C46DDE911B6DDF838A0002084
:104BD000039000F02FFA0390AC480078002806DD1F
:104BE000039800F02BFA3C2005B0BDE8F08FA848F0
:104BF00050F8240060BB0120A54941F82400039827
:104C000000F01CFA33464A464146384600F06AFA3C
:104C1000049010985346CDE901B6009020460F9AB3
:104C20000499FFF73BFD054635B99A4800780128FD
:104C30000CD1FFF796FB09E000F0FCF9039000208F
:104C4000934941F82400039800F0F8F92846CBE78F
:104C5000039800F0F3F92820C6E72DE9F04706464F
:104C60000F4614464FF0000888480078002804DDFD
:104C7000112020700020BDE8F08700F0DBF98046AD
:104C8000FF2E03D18448006890F82860804850F8CF
:104C9000265035B9404600F0D1F94320207000205D
:104CA000E9E7012D06D1404600F0C8F94320207005
:104CB0000020E0E705F12D013846FFF7AFF9814606
:104CC000404600F0BBF9002020704846D3E72DE9AC
:104CD000F0470646884614464FF000096B480078B6
:104CE000002803DD12202070BDE8F08700F0A2F953
:104CF0008146FF2E03D16848006890F82860644818
:104D000050F826502DB9484600F098F943202070FD
:104D1000EAE7012D05D1484600F090F943202070C4
:104D2000E2E74046FFF7BAF907460F2F05DD484690
:104D300000F084F941202070D6E7414605F12D00AE
:104D4000FFF76CF9484600F079F90020207000BFA9
:104D5000CAE770B50546002600F06CF906464C48D7
:104D600050F8254024B9304600F068F9462070BD5F
:104D7000012C04D1304600F061F94320F7E794F8A4
:104D8000260010F0080F2FD014F8260F20F008008E
:104D9000207014F8260910BBA08CE0B904F12A0495
:104DA000A0783E49097840EA01003C490870207823
:104DB0003B49085C617840EA010014F82A19384A36
:104DC0005054304600F03AF932480078012809D1B1
:104DD000FFF7C7FA06E0304600F030F902E030464F
:104DE00000F02CF90020C2E7304600F027F94420FB
:104DF000BDE72DE9F04105464FF0000800F01AF933
:104E00008046FF2D05D12448006890F828500126DF
:104E100008E02148006890F82800A84201D1012646
:104E200000E000261A4850F825402CB9404600F012
:104E300005F94820BDE8F081012C04D1404600F07E
:104E4000FDF84320F6E794F82A701548C05D94F801
:104E50002B1088431249C8550846C05D30B994F8F4
:104E60002C100E48007888430C49087094F82600EE
:104E700040F0080084F82600404600F0DFF8012EDC
:104E800001D1FFF76EFA0020D4E7000010020020E5
:104E9000800C0020190200202002002014020020B3
:104EA0001502002070B5054600265D4800780028F0
:104EB00000DD70BD002D23DD00F0BCF8064659482A
:104EC000006890F82A405848005D5649096891F8F2
:104ED0002B108843544908550846005D40B9514895
:104EE000006890F82C105148007888434F490870AA
:104EF0004C4800688584304600F0A0F8FFF731FA8E
:104F000000BFD6E72DE9F0470746884691461D4683
:104F100043480078002802DD5520BDE8F0874FF4B3
:104F20007A7068434FF47A71B0FBF1F14FF461602D
:104F30007843C8EB081200EB8200484400EB4002C3
:104F4000C2EBC01001EBC004260CA4B22046FFF750
:104F5000A9FF09E04FF40040FFF7A4FF4FF4004021
:104F6000FFF7A0FF701E86B2002EF3DC0020D4E70E
:104F700070B5054600261F2D01DB2A2070BD00F00C
:104F800059F806462A4850F8254024B9304600F022
:104F900055F84320F2E7012C04D1304600F04EF8DA
:104FA0004320EBE7A08C20B9304600F047F85020B2
:104FB000E4E70020A08494F8260010F0370F09D011
:104FC00014F8260F20F03700207001206070A4F143
:104FD000260402E0002084F8270094F8260010F050
:104FE000080F18D104F12A04A0781049097840EA82
:104FF00001000E49087020780B49085C617840EA8E
:10500000010014F82A19084A5054304600F016F8E6
:10501000FFF7A7F902E0304600F010F80020ADE7F6
:10502000100200202002002015020020140200209F
:10503000800C0020EFF3108072B6704780F3108868
:1050400070471D484FF0FF010170002080F3098870
:105050001A48012101701A484FF08051016062B670
:10506000FEE717484FF080510160704714484FF039
:1050700080510160704772B6EFF3098028B1203883
:1050800080E8F00F0F490968086000B50E488047B6
:105090005DF804EB0D480E490A78027009480D4985
:1050A0000A680260106890E8F00F203080F30988E9
:1050B0004EF0040E62B6704722ED00E019020020A7
:1050C00004ED00E0200200207F51000812020020C1
:1050D0001302002028020020704770477047704775
:1050E0007047704770B5044610464FF080750560F4
:1050F000051F28462C606FF00106051F28462E600C
:105100004FF01236051F28462E604FF00336051F5C
:1051100028462E604FF00236051F28462E60761076
:10512000051F28462E60051F284629604FF01136BE
:10513000051F28462E604FF01036051F28462E60AA
:105140004FF00936051F28462E604FF00836051F20
:1051500028462E604FF00736051F28462E604FF078
:105160000636051F28462E604FF00536051F2846D7
:105170002E604FF00436051F28462E6070BD704724
:105180007047704740EA01039B0703D009E008C954
:10519000121F08C0042AFAD203E011F8013B00F8FC
:1051A000013B521EF9D27047D2B201E000F8012B48
:1051B000491EFBD270470022F6E710B513460A4697
:1051C00004461946FFF7F0FF204610BD30B50546EE
:1051D0002A460B4612F8010B13F8014B08B1A04206
:1051E000F8D01CB1002802D06D1CF1E7284630BD74
:1051F000421C10F8011B0029FBD1801A704710B522
:10520000002200E0521C835C8C5CA34201D1002B85
:10521000F8D1D8B2E1B2401A10BD034611F8012B03
:1052200000F8012B002AF9D1184670472DE9F05FEC
:105230000546002092469B46884606468146402405
:105240001BE0284641464746224600F042F85346B6
:105250005A46C01A914110D311461846224600F012
:1052600029F82D1A67EB01084F462246012000213C
:1052700000F020F817EB00094E41201EA4F10104B4
:10528000DFDC484631462A464346BDE8F09F000031
:10529000064C074D06E0E06840F0010394E8070083
:1052A00098471034AC42F6D3FAF746FFFC58000892
:1052B0001C590008202A04DB203A00FA02F10020E1
:1052C00070479140C2F1200320FA03F31943904044
:1052D0007047202A04DB203A21FA02F000217047AF
:1052E00021FA02F3D040C2F120029140084319464E
:1052F000704770B501EB020410F8015B15F007036D
:1053000001D110F8013B2A1106D110F8012B03E05E
:1053100010F8016B01F8016B5B1EF9D12B0705D466
:105320000023521E0FD401F8013BFAE710F8013BAD
:1053300002F10202A1EB030303E013F8015B01F8A1
:10534000015B521EF9D5A142D6D3002070BD0000EA
:105350000FB4084B10B504A902AA039800F01CF87A
:10536000044602A9002000F02BF9204610BC5DF88D
:1053700014FB0000C155000802E008C8121F08C154
:10538000002AFAD170477047002001E001C1121FC6
:10539000002AFBD1704700002DE9FF4F8BB09A46E1
:1053A0000F460446002601E1252851D10025641C42
:1053B000824AA94601212378203B01FA03F01042DA
:1053C00002D00543641CF6E720782E2817D114F884
:1053D000010F45F004052A280ED06FF02F02207827
:1053E000A0F1300109290AD809EB890102EB41013A
:1053F00000EB0109641CF2E757F8049B641C207859
:105400006C280DD004DC4C2812D06A2811D104E09D
:1054100074280DD07A280CD10AE045F4001507E075
:10542000617845F48015814202D1641C05F5801530
:10543000641C207869283FD006DC002871D06328DE
:105440000CD0642804D137E0732811D075285CD0C3
:1054500052460D99904706F10106A6E017F8040B95
:105460008DF8000000208DF80100E846012003E0DF
:1054700057F8048B4FF0FF3069074FF0000501D457
:105480000AE06D1C4D450DDA8542FADB18F805106F
:105490000029F6D106E06D1C8542FCDB18F80510EA
:1054A0000029F8D12E4404E018F8010B52460D995A
:1054B00090476D1EF8D278E000200A90C5F30250A4
:1054C0004FF00A0B02280AD001CFC11700290DDACC
:1054D0000023D0EB030063EB01012D2209E007F16B
:1054E000070727F00707F7E80201EFE72A0504D5C9
:1054F0002B228DF82420012203E0EA070FD020227E
:10550000F7E70DF1200808921AE000200A90C5F391
:1055100002504FF00A0B022804D001CF00210022D4
:10552000EFE747E0FF1D27F00707F7E80201F6E77E
:105530005A460A9BFFF77AFE02F1300208F8012D65
:1055400050EA0102F4D1ADEB080000F1200B68072E
:1055500001D44FF00109D94502DDA9EB0B0000E0B1
:1055600000208146002506E009A85246405D0D99BD
:105570009047761C6D1C08988542F5DB04E03020CE
:1055800052460D999047761CB9F10001A9F1010925
:10559000F5DC05E018F8010B52460D999047761C92
:1055A000BBF10001ABF1010BF4DC641C2078002896
:1055B0007FF4FAAE0FB03046BDE8F08F0928010045
:1055C0000A68531C0B6010707047000000A24A0468
:1055D00000A24A0400A24A040051250200A24A0483
:1055E000303030000000C1814001C0804101C080E6
:1055F0004100C1814001C0804100C1814000C181A2
:105600004001C0804101C0804100C1814000C18192
:105610004001C0804100C1814001C0804101C08083
:105620004100C1814001C0804100C1814000C18171
:105630004001C0804100C1814001C0804101C08063
:105640004100C1814000C1814001C0804101C08052
:105650004100C1814001C0804100C1814000C18141
:105660004001C0804101C0804100C1814000C18132
:105670004001C0804100C1814001C0804101C08023
:105680004100C1814000C1814001C0804101C08012
:105690004100C1814001C0804100C1814000C18101
:1056A0004001C0804100C1814001C0804101C080F3
:1056B0004100C1814001C0804100C1814000C181E1
:1056C0004001C0804101C0804100C1814000C181D2
:1056D0004001C0804100C1814001C0804101C080C3
:1056E0004100C1814000C0C101C30302C2C6060718
:1056F000C705C5C404CC0C0DCD0FCFCE0E0ACACB46
:105700000BC90908C8D81819D91BDBDA1A1EDEDF45
:105710001FDD1D1CDC14D4D515D71716D6D21213D5
:10572000D311D1D010F03031F133F3F23236F6F735
:1057300037F53534F43CFCFD3DFF3F3EFEFA3A3B85
:10574000FB39F9F83828E8E929EB2B2AEAEE2E2F65
:10575000EF2DEDEC2CE42425E527E7E62622E2E315
:1057600023E12120E0A06061A163A3A26266A6A755
:1057700067A56564A46CACAD6DAF6F6EAEAA6A6BC5
:10578000AB69A9A86878B8B979BB7B7ABABE7E7FC5
:10579000BF7DBDBC7CB47475B577B7B67672B2B355
:1057A00073B17170B0509091519353529296565775
:1057B00097559594549C5C5D9D5F9F9E5E5A9A9B05
:1057C0005B99595898884849894B8B8A4A4E8E8FE5
:1057D0004F8D4D4C8C448485458747468682424395
:1057E000834181804000000061626300000000008E
:1057F00000000000000000000000000000000100A8
:105800000200010003000100020001000400010089
:105810000200010003000100020001000500010078
:105820000200010003000100020001000400010069
:105830000200010003000100020001000600010057
:105840000200010003000100020001000400010049
:105850000200010003000100020001000500010038
:105860000200010003000100020001000400010029
:105870000200010003000100020001000700010016
:105880000200010003000100020001000400010009
:1058900002000100030001000200010005000100F8
:1058A00002000100030001000200010004000100E9
:1058B00002000100030001000200010006000100D7
:1058C00002000100030001000200010004000100C9
:1058D00002000100030001000200010005000100B8
:1058E00002000100030001000200010004000100A9
:1058F0000200010003000100020001001C59000821
:105900000000002034020000F2520008D8590008BC
:10591000340200200C0F00008853000801102D01F4
:1059200002030404100D060708090204060801100A
:1059300007D10385323227535349443D222C22504C
:105940005707114C22534E084B4454084B0D0A285C
:10595000780A45545F54494D453D5B0F192A490D5E
:1059600021680B434C4F53455F56414C562159FA21
:1059700019F71E0304040506FB1D080909780169CF
:105980001A140303E82202062362696E676F2E6809
:10599000656C6C6F2D0120120200121261613A6277
:1059A000623A63633A64643A65653A6666453030E4
:1059B00030416991BD30323537104A310209100C3F
:1059C00059405908780D3137303730323130303165
:0859D0003233F4013500000040
:0400000508000147A7
:00000001FF
